:100000000C945D000C9485000C9485000C94850084
:100010000C9485000C9485000C9485000C9485004C
:100020000C9485000C9485000C9485000C9485003C
:100030000C9485000C9485000C9485000C9485002C
:100040000C9432030C9485000C94A2030C947C0352
:100050000C9485000C9485000C9485000C9485000C
:100060000C9485000C9485000000000024002700FB
:100070002A0000000000250028002B0004040404CE
:100080000404040402020202020203030303030342
:10009000010204081020408001020408102001021F
:1000A00004081020000000080002010000030407FB
:1000B0000000000000000000570511241FBECFEF14
:1000C000D8E0DEBFCDBF11E0A0E0B1E0E4EDFFE09D
:1000D00002C005900D92A633B107D9F721E0A6E33F
:1000E000B1E001C01D92AC3DB207E1F710E0CDE5F3
:1000F000D0E004C02197FE010E94A605CC35D107AF
:10010000C9F70E94D4030C94E8070C94000090E017
:10011000FC01EC55FF4F2491FC01E057FF4F349157
:10012000FC01E458FF4FE491EE23C9F0222339F09B
:10013000233001F1A8F4213019F1223029F1F0E047
:10014000EE0FFF1FEE58FF4FA591B4918FB7F894B3
:10015000EC91611126C030953E233C938FBF0895EA
:100160002730A9F02830C9F0243049F78091800069
:100170008F7D03C0809180008F7780938000DFCFD8
:1001800084B58F7784BDDBCF84B58F7DFBCF809125
:10019000B0008F778093B000D2CF8091B0008F7D78
:1001A000F9CF3E2BDACF3FB7F89480913B01909185
:1001B0003C01A0913D01B0913E0126B5A89B05C030
:1001C0002F3F19F00196A11DB11D3FBFBA2FA92FD6
:1001D000982F8827BC01CD01620F711D811D911DD3
:1001E00042E0660F771F881F991F4A95D1F708953F
:1001F000AF92BF92CF92DF92EF92FF920F931F9335
:10020000CF93DF936C017B018B01040F151FEB0172
:100210005E01AE18BF08C017D10759F06991D60129
:10022000ED91FC910190F081E02DC6010995892B9B
:1002300079F7C501DF91CF911F910F91FF90EF905A
:10024000DF90CF90BF90AF900895FC01538D448D07
:10025000252F30E0842F90E0821B930B541710F071
:10026000CF96089501970895FC01918D828D98177E
:1002700061F0A28DAE0FBF2FB11D5D968C91928D56
:100280009F5F9F73928F90E008958FEF9FEF089587
:10029000FC01918D828D981731F0828DE80FF11D50
:1002A000858D90E008958FEF9FEF0895FC01918D6B
:1002B000228D892F90E0805C9F4F821B91098F7364
:1002C000992708958FE391E00E94560121E0892B40
:1002D00009F420E0822F089580E090E0892B29F036
:1002E0000E94620181110C9400000895FC01A48D0C
:1002F000A80FB92FB11DA35ABF4F2C91848D90E048
:1003000001968F739927848FA689B7892C93A0892A
:10031000B1898C91837080648C93938D848D9813B4
:1003200006C00288F389E02D80818F7D8083089547
:10033000EF92FF920F931F93CF93DF93EC0181E035
:10034000888F9B8D8C8D98131AC0E889F9898081DC
:1003500085FF15C09FB7F894EE89FF896083E8890F
:10036000F98980818370806480839FBF81E090E001
:10037000DF91CF911F910F91FF90EF900895F62E8E
:100380000B8D10E00F5F1F4F0F731127E02E8C8D28
:100390008E110CC00FB607FCFACFE889F98980816D
:1003A00085FFF5CFCE010E947601F1CFEB8DEC0FEA
:1003B000FD2FF11DE35AFF4FF0829FB7F8940B8F8A
:1003C000EA89FB8980818062CFCFCF93DF93EC01F4
:1003D000888D8823B9F0AA89BB89E889F9898C912D
:1003E00085FD03C0808186FD0DC00FB607FCF7CFE9
:1003F0008C9185FFF2CF808185FFEDCFCE010E94E9
:100400007601E9CFDF91CF910895FC0101900020A2
:10041000E9F73197AF01481B590BBC018FE391E01D
:100420000C94F8008F929F92AF92BF920F931F93FC
:10043000CF93DF93CDB7DEB7A1970FB6F894DEBFA9
:100440000FBECDBF19A2423008F44AE08E010F5D05
:100450001F4F842E912CB12CA12CA50194010E9438
:100460008405E62FB901CA01EA30F4F4E05DD80151
:10047000EE938D01232B242B252B79F790E080E040
:10048000109719F0CD010E940502A1960FB6F894BD
:10049000DEBF0FBECDBFDF91CF911F910F91BF90F7
:1004A000AF909F908F900895E95CE1CF4F925F925B
:1004B0006F927F928F929F92AF92BF92CF92DF9274
:1004C000EF92FF920F931F93CF936B017C01742ED9
:1004D000AC019B010E94E307882399F082E191E03F
:1004E000CF911F910F91FF90EF90DF90CF90BF9031
:1004F000AF909F908F907F906F905F904F900C94F3
:10050000050246015701E894B7F82FEF3FEF4FE798
:100510005FE7C501B4010E94E30781110DC02FEF11
:100520003FEF4FE75FE7C501B4010E9419061816B7
:100530001CF486E191E0D4CF2FEF3FEF4FE75FE46B
:10054000C701B6010E94710718161CF48AE191E0F8
:10055000C7CF2FEF3FEF4FE75FECC701B6010E9417
:10056000190687FDF3CF20E030E0A901C701B601ED
:100570000E94190610E000E087FF0AC06DE28FE3D9
:1005800091E00E9498018C01F7FAF094F7F8F0944A
:10059000C0E060E070E080E09FE37C1641F020E086
:1005A00030E040E251E40E941E06CF5FF6CFA70183
:1005B00096010E94AD052B013C010E9490064B0163
:1005C0005C014AE00E9412027C01E00EF11ECC2385
:1005D000C1F1C501B4010E94BF069B01AC01C3017A
:1005E000B2010E94AC054B015C016EE28FE391E029
:1005F0000E949801E80EF91EC15018F120E030E089
:1006000040E251E4C501B4010E9476072B013C0190
:100610000E9490064B01B12CA12C4AE0C501B40107
:100620000E941202E80EF91EC501B4010E94BF0625
:100630009B01AC01C301B2010E94AC054B015C01FE
:10064000DBCFC701CF911F910F91FF90EF90DF900B
:10065000CF90BF90AF909F908F907F906F905F9062
:100660004F9008951F920F920FB60F9211242F935F
:100670003F938F939F93AF93BF9380913701909156
:100680003801A0913901B0913A013091360123E04F
:10069000230F2D3758F50196A11DB11D209336016A
:1006A0008093370190933801A0933901B0933A01B8
:1006B00080913B0190913C01A0913D01B0913E01A0
:1006C0000196A11DB11D80933B0190933C01A09325
:1006D0003D01B0933E01BF91AF919F918F913F91AA
:1006E0002F910F900FBE0F901F90189526E8230FA3
:1006F0000296A11DB11DD2CF1F920F920FB60F927D
:1007000011242F933F934F935F936F937F938F9316
:100710009F93AF93BF93EF93FF938FE391E00E947A
:100720007601FF91EF91BF91AF919F918F917F9152
:100730006F915F914F913F912F910F900FBE0F904E
:100740001F9018951F920F920FB60F9211242F939E
:100750008F939F93EF93FF93E0914F01F09150019E
:100760008081E0915501F091560182FD1BC090817E
:10077000809158018F5F8F7320915901821741F04A
:10078000E0915801F0E0E15CFE4F958F80935801B5
:10079000FF91EF919F918F912F910F900FBE0F902E
:1007A0001F9018958081F4CF789484B5826084BDC1
:1007B00084B5816084BD85B5826085BD85B5816065
:1007C00085BD80916E00816080936E0010928100E3
:1007D000809181008260809381008091810081609E
:1007E000809381008091800081608093800080915F
:1007F000B10084608093B1008091B00081608093EB
:10080000B00080917A00846080937A0080917A00B1
:10081000826080937A0080917A00816080937A0070
:1008200080917A00806880937A001092C100E091F4
:100830004F01F091500182E08083E0914B01F091F3
:100840004C011082E0914D01F0914E018FEC8083BC
:1008500010925701E0915301F091540186E080839A
:10086000E0915101F0915201808180618083E0919B
:100870005101F0915201808188608083E0915101A3
:10088000F0915201808180688083E0915101F09164
:10089000520180818F7D8083C2E0D0E08C2FFE01E9
:1008A000E057FF4F9491FE01E458FF4F249122231B
:1008B00099F030E0220F331FF901E859FF4FA5915D
:1008C000B491F901EE58FF4F259134912FB7F89468
:1008D000EC91E92BEC932FBF60E00E9487002196FA
:1008E000C730D105D9F610E4C0E0D0E010937C0009
:1008F00080917A00806480937A0080917A0086FDEE
:10090000FCCFC0907800D09079008EE191E00E94F9
:1009100005020D2C000CEE08FF084AE0C701B601E5
:10092000F7FE0DC06DE28FE391E00E94980166270B
:100930007727CB016C197D098E099F094AE00E9437
:10094000120283E391E00E940502C701B6010E94F2
:10095000C10620E030E040E85AE30E94760720E03C
:1009600030E040EA50E40E9476076B017C0187E2A8
:1009700091E00E94050242E0C701B6010E945602C2
:1009800083E391E00E94050220E030E040E05FE375
:10099000C701B6010E94AC0520E030E048EC52E40B
:1009A0000E9476076B017C018EE291E00E940502B5
:1009B00042E0C701B6010E94560283E391E00E9423
:1009C00005020E94D3002B013C018CED882E85E0AE
:1009D000982EA12CB12C0E94D300641975098609A8
:1009E0009709683E734081059105A8F321E0821ABA
:1009F0009108A108B10888EE480E83E0581E611CDA
:100A0000711C81149104A104B10429F720E030E0A5
:100A100040EA51E4C701B6010E947107181684F438
:100A200061E086E00E94870061E085E00E94870027
:100A300060E085E00E94870060E084E00E9487001B
:100A400020E030E040EC51E4C701B6010E9471079C
:100A5000181664F461E086E00E94870061E085E09A
:100A60000E94870060E084E00E94870020E030E080
:100A700048ED51E4C701B6010E947107181664F4ED
:100A800061E086E00E94870061E085E00E948700C7
:100A900061E084E00E948700209709F427CF0E943C
:100AA0006201882309F422CF0E9400001FCFEFE3E8
:100AB000F1E01382128288EE93E0A0E0B0E084833C
:100AC0009583A683B78384E091E09183808385EC4E
:100AD00090E09587848784EC90E09787868780EC08
:100AE00090E0918B808B81EC90E0938B828B82ECF9
:100AF00090E0958B848B86EC90E0978B868B118EA3
:100B0000128E138E148E0895A1E21A2EAA1BBB1BFF
:100B1000FD010DC0AA1FBB1FEE1FFF1FA217B307C9
:100B2000E407F50720F0A21BB30BE40BF50B661FDF
:100B3000771F881F991F1A9469F7609570958095A3
:100B400090959B01AC01BD01CF010895EE0FFF1FF1
:100B50000590F491E02D09945058BB27AA270E94D4
:100B6000C4050C9437070E94290738F00E9430070B
:100B700020F039F49F3F19F426F40C9426070EF464
:100B8000E095E7FB0C942007E92F0E94480758F3F3
:100B9000BA17620773078407950720F079F4A6F562
:100BA0000C946A070EF4E0950B2EBA2FA02D0B01C2
:100BB000B90190010C01CA01A0011124FF27591BA2
:100BC00099F0593F50F4503E68F11A16F040A22FA8
:100BD000232F342F4427585FF3CF46953795279519
:100BE000A795F0405395C9F77EF41F16BA0B620B18
:100BF000730B840BBAF09150A1F0FF0FBB1F661F5F
:100C0000771F881FC2F70EC0BA0F621F731F841FA1
:100C100048F4879577956795B795F7959E3F08F0C7
:100C2000B0CF9395880F08F09927EE0F9795879589
:100C300008950E94FC0608F481E008950E9432069F
:100C40000C9437070E94300758F00E94290740F0A3
:100C500029F45F3F29F00C94200751110C946B0785
:100C60000C9426070E94480768F39923B1F3552393
:100C700091F3951B550BBB27AA27621773078407AF
:100C800038F09F5F5F4F220F331F441FAA1FA9F345
:100C900035D00E2E3AF0E0E832D091505040E69533
:100CA000001CCAF72BD0FE2F29D0660F771F881F94
:100CB000BB1F261737074807AB07B0E809F0BB0B87
:100CC000802DBF01FF2793585F4F3AF09E3F51059B
:100CD00078F00C9420070C946B075F3FE4F3983E88
:100CE000D4F3869577956795B795F7959F5FC9F784
:100CF000880F911D9695879597F90895E1E0660F05
:100D0000771F881FBB1F621773078407BA0720F07D
:100D1000621B730B840BBA0BEE1F88F7E0950895E6
:100D20000E94500788F09F5798F0B92F9927B75124
:100D3000B0F0E1F0660F771F881F991F1AF0BA957F
:100D4000C9F714C0B13091F00E946A07B1E008956C
:100D50000C946A07672F782F8827B85F39F0B93F5E
:100D6000CCF3869577956795B395D9F73EF4909532
:100D70008095709561957F4F8F4F9F4F0895E894B0
:100D800009C097FB3EF490958095709561957F4FD3
:100D90008F4F9F4F9923A9F0F92F96E9BB27939581
:100DA000F695879577956795B795F111F8CFFAF491
:100DB000BB0F11F460FF1BC06F5F7F4F8F4F9F4FC2
:100DC00016C0882311F096E911C0772321F09EE820
:100DD000872F762F05C0662371F096E8862F70E086
:100DE00060E02AF09A95660F771F881FDAF7880F60
:100DF0009695879597F90895990F0008550FAA0BB6
:100E0000E0E8FEEF16161706E807F907C0F012161D
:100E10001306E407F50798F0621B730B840B950B20
:100E200039F40A2661F0232B242B252B21F4089575
:100E30000A2609F4A140A6958FEF811D811D089512
:100E400097F99F6780E870E060E008959FEF80EC7D
:100E5000089500240A941616170618060906089520
:100E600000240A9412161306140605060895092E86
:100E70000394000C11F4882352F0BB0F40F4BF2BF5
:100E800011F460FF04C06F5F7F4F8F4F9F4F089535
:100E900057FD9058440F551F59F05F3F71F047952B
:100EA000880F97FB991F61F09F3F79F08795089510
:100EB000121613061406551FF2CF4695F1DF08C02F
:100EC000161617061806991FF1CF8695710561054C
:100ED00008940895E894BB2766277727CB0197F9F4
:100EE00008950E94FC0608F48FEF08950E94890778
:100EF0000C9437070E94290738F00E94300720F031
:100F0000952311F00C9420070C94260711240C94BF
:100F10006B070E94480770F3959FC1F3950F50E04F
:100F2000551F629FF001729FBB27F00DB11D639F9B
:100F3000AA27F00DB11DAA1F649F6627B00DA11D41
:100F4000661F829F2227B00DA11D621F739FB00DE7
:100F5000A11D621F839FA00D611D221F749F332757
:100F6000A00D611D231F849F600D211D822F762FF0
:100F70006A2F11249F5750409AF0F1F088234AF0CD
:100F8000EE0FFF1FBB1F661F771F881F9150504039
:100F9000A9F79E3F510580F00C9420070C946B0735
:100FA0005F3FE4F3983ED4F3869577956795B795C0
:100FB000F795E7959F5FC1F7FE2B880F911D9695DA
:100FC000879597F908950E94FC06880B990B089560
:040FD000F894FFCFC3
:100FD400000000009801F8002501E50156013401E4
:100FE40048016E616E00696E66006F766600536537
:100FF4006E736F723A2000566F6C743A2000546519
:061004006D703A200000AF
:00000001FF
